:020000040800F2
:10000000B0040020010100081B1900080D170008AA
:1000100019190008D30600089B1E00080000000004
:100020000000000000000000000000002B1B000882
:10003000D506000800000000291B00082D1B000841
:100040001B0100081B0100081B0100081B01000820
:100050001B0100081B0100081B0100081B01000810
:100060001B0100081B0100081B0100081B01000800
:100070001B0100081B0100081B0100081B010008F0
:100080001B0100081B0100081B0100081B010008E0
:100090001B0100081B0100081B0100081B010008D0
:1000A0001B0100081B0100081B0100081B010008C0
:1000B000C91B00081B0100081B0100081B010008E8
:1000C0001B0100081B0100081B0100081B010008A0
:1000D0001B0100081B0100081B0100081B01000890
:1000E0001B0100081B0100081B010008DFF80CD0F1
:1000F00000F0BCFA004800473D290008B004002089
:100100000648804706480047FEE7FEE7FEE7FEE7B1
:10011000FEE7FEE7FEE7FEE7FEE7FEE7811B0008DD
:10012000ED000008202A04DB203A21FA02F0002129
:10013000704721FA02F3D040C2F1200291400843F7
:1001400019467047D2B201E000F8012B491EFBD2DC
:1001500070470022F6E710B513460A4604461946D2
:10016000FFF7F0FF204610BD2DE9F04D81EA0304B2
:1001700004F0004B21F0004514464FF0000A23F034
:10018000004150EA050220D054EA01021DD0C5F317
:100190000A570246C5F31303C1F31300C1F30A560D
:1001A00040F4801543F48013A7EB0608101BD646D5
:1001B00008F2FD3873EB050002D308F1010801E0F5
:1001C00092185B41B8F1000F03DA00200146BDE848
:1001D000F08D00204FF48011064684460EE0171B78
:1001E00073EB050705D3121B63EB050306434CEACB
:1001F000010C49084FEA300092185B4150EA0107B0
:10020000EDD152EA030012D082EA040083EA05012C
:10021000084305D0101BAB4106D20122002306E0A3
:1002200000224FF0004302E06FF0010253101AEB7E
:1002300006004CEB085110EB0A0041EB0B01BDE846
:10024000F04D00F06CB80EB540F233410291002140
:10025000CDE900110A460B4600F070F803B000BD6E
:1002600030B5041E71F1000404DB4FF0004440423D
:1002700064EB0101141E73F1000405DB1C464FF012
:100280000043524263EB04038B4208BF824230BDFD
:1002900030B50B46014600202022012409E021FA56
:1002A00002F59D4205D303FA02F5491B04FA02F553
:1002B0002844151EA2F10102F1DC30BD2DE9F05FEA
:1002C0000546002092469B468846064681464024C5
:1002D0001BE02846414647462246FFF723FF534688
:1002E0005A46C01A914110D311461846224600F0D2
:1002F000CFF92D1A67EB01084F4622460120002155
:1003000000F0C6F917EB00094E41201EA4F10104CC
:10031000DFDC484631462A464346BDE8F09F10B52B
:10032000141E73F1000408DA401C41F10001921818
:100330005B411A4301D120F0010010BD2DE9F04DC1
:1003400092469B4611B1B1FA81F202E0B0FA80F216
:100350002032904600F09CF904460F4640EA0A001D
:1003600041EA0B0153465A46084313D0114653EA5B
:10037000010019D0C8F140025046FFF7D3FE0546F0
:100380000E4650465946424600F082F9084305D0D1
:10039000012004E020463946BDE8F08D00200543E9
:1003A00046EAE0762C4337430A986305E40AA0EB5B
:1003B00008000022FD0A44EA47540A3002D5002012
:1003C0000146E9E7010510196941DDE90845001911
:1003D0006941BDE8F04DA2E72DE9FE4F804681EA74
:1003E0000300C00F0C46009021F0004123F00045AF
:1003F000B8EB0200A94105D24046214690461C4672
:100400000B46024623F00040104347D0270DC7F3A8
:100410000A00C3F30A510290401A019040286BDA97
:10042000C3F3130040F4801B0098924620B10023D0
:10043000D2EB030A63EB0B0B01985946C0F1400263
:10044000504600F025F906460D4650465946019A99
:1004500000F02DF910EB08006141002487EA1152E9
:1004600084EAE7731A4340D0009A62B3019A012AE2
:100470004FEA075215DC001B61EB02014FF000420E
:1004800002EA0752CDE90042001C41F580113246D4
:100490002B46FFF753FF03B0BDE8F08F40462146DF
:1004A000F9E7001B61EB0201001C41F58013001805
:1004B0005B412018A2F5001747EB030140EAD57015
:1004C000B6196D4111E06D084FEA360645EAC07570
:1004D0004FEA0752001B61EB0201001C41F580113D
:1004E00049084FEA30000019514132462B4603B00B
:1004F000BDE8F04FFFF713BF009801224000002332
:10050000D0EB020263EBE073009821464FEAE074FF
:10051000B8EB000061EB0401E9E783F000435BE71F
:1005200081F0004158E72DE9FE4F81EA030404F011
:10053000004421F0004100944FF0000B23F00043F1
:1005400050EA01045ED052EA03045BD0C3F30A54BC
:10055000C1F30A552C44A4F2F3340194A0FB0254D5
:10056000C1F3130141F48011C3F3130343F4801367
:1005700001FB024400FB034E840A970A44EA8154BB
:1005800047EA8357A4FB076802958D0A05FB078598
:100590004FEA932C04FB0C542705029D4FEA0658A2
:1005A00047EA1637B5EB08056EEB070C870E920E7F
:1005B00047EA811742EA8312A7FB0201B6EB0B015F
:1005C00064EB00042B0D43EA0C335E1844EB1C5023
:1005D000DA465146E7FB0201C5F313044FEA0B3339
:1005E00043EA14534FEA0432019C43EA0603A4F1A0
:1005F0000C040294009CCDE900B4FFF79FFE03B009
:10060000BDE8F08F00200146F9E7C1F30A52C1F3BB
:10061000130140F2FF3341F480119A4202DA0020C4
:100620000146704740F233439A42A2F2334202DC61
:100630005242FFF777BD00F02BB8000030B5041E22
:1006400071F1000404DB4FF00044404264EB01010F
:10065000141E73F1000405DB1C464FF000435242A8
:1006600063EB0403994208BF904230BD064C074D2E
:1006700006E0E06840F0010394E807009847103472
:10068000AC42F6D3FFF736FD1033000830330008D4
:10069000202A04DB203A00FA02F100207047914042
:1006A000C2F1200320FA03F3194390407047202A37
:1006B00006DBCB17203A41FA02F043EAE07306E08A
:1006C00041FA02F3D040C2F120029140084319469A
:1006D0007047FEE77047704770B5044600F008F9B0
:1006E0000546601C02D004480078044400F000F97C
:1006F000401BA042FAD370BD1C0000202DE9F84F2A
:10070000DFF8B891002409F1040A0AF1040B23462A
:100710000F270BF1040EC9E00125A5402A40AA428B
:100720007DD1674ED1F804C0ACEB0608B44532D099
:1007300014DCBCF1030F3AD009DCBCF1000F2AD065
:10074000BCF1010F1CD0BCF1020F31D11DE0BCF196
:10075000110F17D0BCF1120F2AD119E0B8F5881F7C
:1007600019D006DCB8F5803F15D0B8F5801F1FD131
:1007700011E0B8F5001F0ED0B8F5041F18D10AE03B
:10078000CB6815E0CB681B1D12E0CB6808330FE087
:10079000CB680C330CE08B682BB1012B4FF00803B6
:1007A00003D0456104E0042302E0056100E000237A
:1007B000FF2A01D8064601E000F104064FEA84054D
:1007C00001D9A5F12005D6F8008007FA05FC28EA32
:1007D0000C0803FA05F548EA0508C6F800804D68DC
:1007E000ED0062D5374DAE6946F00106AE61AD69E8
:1007F00024F0030605F001050095334D06EB050CCA
:10080000DCF80850A607360F07FA06F825EA0805AF
:10081000DFF8B880404503D14FF0000817E044E00E
:10082000DFF8AC80404502D14FF001080FE0DFF85F
:10083000A480404502D14FF0020808E0DFF898801C
:10084000404502D14FF0030801E04FF0040808FAD8
:1008500006F848EA0508CCF808804D68D9F8006029
:10086000ED034D4601D5164300E096432E604D68DA
:10087000DAF80060AD03554601D5164300E0964313
:100880002E604D68DBF80060ED025D4601D5164331
:1008900000E096432E604D68DEF80060AD027546BC
:1008A00001D5164300E096432E60641C0D682A466D
:1008B000E5407FF431AFBDE8F88F0000000401404F
:1008C000000011100010024000000140000801402B
:1008D000000C0140001001400014014080680840F5
:1008E00000D0012070470AB1016170470904FBE79D
:1008F00001488068704700001C00002002488168A1
:1009000002781144816070471C000020074810B530
:10091000016841F010010160032000F075F800202B
:1009200000F006F800F024F8002010BD002002407E
:1009300070B50D4D04464FF47A712878B1FBF0F094
:100940000A490968B1FBF0F000F0CCFA48B9102C64
:1009500007D200222146501E00F036F800206C60BD
:1009600070BD012070BD00001C0000202800002088
:100970000C4808B5816941F001018161816901F08C
:1009800001010091C16941F08051C161C06900F06D
:10099000805000900448416821F0E06141F000710E
:1009A000416008BD0010024000000140002809DB42
:1009B00000F01F02012191404009800000F1E02079
:1009C000C0F8001170470000F0B40E4B1B680C46D5
:1009D000C3F30223C3F10705042D00D90425191D13
:1009E000072901D2002300E0DB1E012606FA05F1EB
:1009F000491E214099409E40761E16403143F0BC6E
:100A000001F082BA0CED00E0064900F00702086828
:100A10004FF6FF03184040EA0220034A10430860E3
:100A2000704700000CED00E00000FA052DE9F047EA
:100A30000F46050061D0434E306800F00700B84211
:100A400009D2306820F0070038433060306800F089
:100A50000700B84251D128683B4C810712D54007A6
:100A600003D5606840F4E06060602878000703D533
:100A7000606840F4605060606068A96820F0F00031
:100A8000084360602878C00728D06868012810D023
:100A90002168022810D0890700292EDA616821F028
:100AA000030101436160FFF723FF804641F288396B
:100AB0000DE021688903EFE78901EDE7FFF718FFF3
:100AC000A0EB0801494502D90320BDE8F087606822
:100AD000696800F00C00B0EB810FEFD1306800F0D6
:100AE0000700B8420BD9306820F007003843306067
:100AF000306800F00700B84201D00120E5E728780F
:100B0000400705D56068E96820F4E060084360604C
:100B10002878000706D56068296920F4605040EA0B
:100B2000C100606000F018F86168084AC1F3031161
:100B3000515CC8400649086006480068FFF7F8FEA7
:100B40000020C2E7002002400010024000330008ED
:100B5000280000202000002012A185B00FC98DE8D8
:100B60000F0014A0144A006804905168134801F063
:100B70000C03042B10D0082B0ED1C1F38343C903FF
:100B80001DF803000AD5516804AAC1F34041515C25
:100B90000A4A5043B0FBF1F005B07047084948439A
:100BA000FAE7000002030405060708090A0B0C0D0A
:100BB0000E0F1010010200000010024000127A0017
:100BC00000093D002DE9F84F040070D02078C04D99
:100BD000C00749D06868C0F38100012807D0686861
:100BE000C0F38100022809D16868C00306D52868CF
:100BF000800339D560680028E7D035E06068B0F53B
:100C0000803F0BD010B1B0F5A02F11D0286820F490
:100C100080302860286820F4802002E0286840F4B2
:100C200080302860606890B1FFF762FE06460AE0F7
:100C3000286840F480202860F0E700BFFFF758FEE6
:100C4000801B642873D828688003F7D50CE0FFF771
:100C50004FFE064605E000BFFFF74AFE801B6428F2
:100C6000F0D828688003F7D420789A4E80074FF098
:100C700001094FF0000839D5686810F00C0F07D053
:100C80006868C0F38100022809D16868C00306D4EF
:100C90002868800714D52069012808D110E0206950
:100CA000B0B1C6F80090FFF723FE074605E00AE161
:100CB000FFF71EFEC01B0228C4D828688007F7D59E
:100CC0002868616920F0F80040EAC10028600DE062
:100CD000C6F80080FFF70CFE074604E0FFF708FEA9
:100CE000C01B022823D828688007F7D42078000783
:100CF0002CD57948A169D9B1C0F80090FFF7F8FD6B
:100D0000074604E0FFF7F4FDC01B02280FD8686A0D
:100D10008007F7D571484FF4FA510068B0FBF1F045
:100D2000009000BF0098411E0091FAD20EE080E0D2
:100D3000C0F80080FFF7DCFD074604E0FFF7D8FDB0
:100D4000C01B022875D8686A8007F7D4207840074E
:100D500060D5E8690027C00008D4E86940F08050F9
:100D6000E861E869012700F0805000905C48016864
:100D7000C90513D40168834641F480710160FFF70F
:100D8000B7FD824606E000BFFFF7B2FDA0EB0A0008
:100D900064284ED8DBF80000C005F5D5E0680128CE
:100DA0000AD008B1052813D0286A20F00100286273
:100DB000286A20F0040002E0286A40F0010028625E
:100DC000E06841F2883B98B1FFF792FD82460BE064
:100DD000286A40F004002862EEE700BFFFF788FDB4
:100DE000A0EB0A0159455AD8286A8007F6D50CE0CD
:100DF000FFF77EFD824605E0FFF77AFDA0EB0A01D2
:100E000059454CD8286A8007F6D41FB1E86920F00C
:100E10008050E861E06988B36968C1F38101022903
:100E200044D00228C6F8608004D0FFF761FD044674
:100E300038E034E0FFF75CFD074604E0FFF758FDBB
:100E4000C01B02282BD828688001F7D4206AB0F58F
:100E5000803F05D16868A16820F4003008436860CD
:100E6000D4E908010843696821F4741108436860F3
:100E7000C6F86090FFF73CFD044606E025E000BFA1
:100E8000FFF736FD001B022809D828688001F7D536
:100E90001BE000BFFFF72CFD001B022802D9032036
:100EA000BDE8F88F28688001F4D40EE00128F7D05F
:100EB0006868226A00F48031914204D1616A00F4CA
:100EC0007010884201D00120EAE70020E8E7000026
:100ED00000100240000042428004424228000020EC
:100EE0000070004010B5401EB0F1807F01D301209A
:100EF00010BD4FF0E02460610F21601701F004F88D
:100F00000020A06107202061002010BD70477047BD
:100F100010B590F83C20012A22D0012280F83C2014
:100F2000CA688C6822F4407222434C6822F48062C2
:100F300022430C6822F4006222430C6922F480529E
:100F400022434C6922F400522243C969002322F44F
:100F500080420A4301684A6480F83C30002010BD9A
:100F6000022010BD70B590F83C20012A19D0012450
:100F700000F83C4F0222427050F83C3C5A689D6891
:100F800022F070060A684968324325F0800529433B
:100F90005A6050F83C2C9160447000210170084662
:100FA00070BD022070BD10B5040003D094F83D0060
:100FB00010B107E0012010BD002084F83C0020465D
:100FC00000F00CF8022084F83D00211D206800F09C
:100FD00001FE012084F83D00002010BD00B585B061
:100FE00000210091019102910391214B0268214857
:100FF00002219A4218D1826942F4006282618269B8
:1010000002F400620492826942F0080282618069FF
:10101000029100F008000490C8020090694616484A
:10102000FFF76CFB05B000BDB2F1804FFAD1C26989
:1010300042F00102C261C26902F0010204928269B7
:1010400042F0040282618069029100F00400049081
:101050000C20009069460948FFF750FB002211461A
:101060001C20FFF7B1FC1C20FFF7A0FCDAE7000012
:10107000002C014000100240000C0140000801401B
:1010800070B5044690F83C00012817D0012584F87B
:101090003C50022084F83D002068826822F07702EC
:1010A00022F47F4282600868502830D00DDC20286E
:1010B0004DD005DC98B310283BD148E0022070BD2C
:1010C000302844D0402834D139E0602828D0702816
:1010D00006D0B0F5805F2CD0B0F5005F29D10AE0D2
:1010E000CB68D1E90121206800F0B7FD2068816854
:1010F00041F0770109E0CB68D1E90121206800F0D7
:10110000ACFD2068816841F48041816011E0CA68CB
:101110004968206800F056FE5021206807E016E07C
:10112000CA684968206800F08BFE6021206800F0E2
:101130009EFD84F83D50002084F83C0070BDCA68D4
:101140004968206800F03EFE40212068EFE72268F1
:1011500001461046EBE700002DE9F0412B4E00253B
:101160002B4C30784FF00108032823D16078C8BB9E
:101170003570207804F10807012802D0207868B182
:1011800030E00821234800F0ABFA2179C1EB01419E
:1011900008447860257084F801800BE008211D4820
:1011A00000F09EFA2179C1EB0141084438602078B3
:1011B000401C20703078042814D1E07890B9357044
:1011C000A078134E4FF00C0110360028114812D0B1
:1011D00000F086FA2179C1EB014108447060A570E6
:1011E00084F803802079642803D30A4800684562A4
:1011F0002571BDE8F08100F073FA2179C1EB01415E
:1012000008443060A078401CA070EBE71800002074
:10121000000000206C0000202DE9F041044690F809
:101220003C000D4601283BD0012684F83C6002209A
:1012300084F83D009AB3042A44D02068082A53D089
:10124000D5E90027E968036A23F480530362D0F8E4
:101250001CC0036A2CF4407C4CEA07274FF6FF7C45
:1012600027F470470CEA01313943770323F4005324
:1012700007EA02321A43C16102622068C16921F49F
:101280004061C1612068C169AA6841EA0221C16167
:1012900084F83D60002084F83C00BDE8F08101E066
:1012A0000220FAE7D5E90012EB68206800F09CFD07
:1012B0002068816921F00C01816120688169AA6838
:1012C00011430FE0D5E90012EB68206800F0CAFD79
:1012D0002068816921F44061816120688169AA6880
:1012E00041EA02218161D3E7D5E9002C2F7B016A15
:1012F00021F480710162C169036A21F0030141EAAE
:101300000C0121F0F00C39074FF400774CEA116121
:1013100023F4007307EA02221A43C16102622068C3
:10132000C16921F00C01C1612068C169AA6811433B
:10133000ADE710B5040003D094F83D0010B107E00C
:10134000012010BD002084F83C00204600F00CF87D
:10135000022084F83D00211D206800F03BFC0120A4
:1013600084F83D00002010BD704710B502680446A7
:1013700031B1042908D008291AD00C2908D11BE062
:10138000D06840F0020002E0D06840F00400D06075
:101390000122206800F054FC2068816801F00701F8
:1013A000062903D0016841F001010160002010BD51
:1013B000D06840F00800EAE7D06840F01000E6E7A7
:1013C0002DE9F0410446006801695B4DC943890776
:1013D0004FF0000616D4C168C943890712D4012111
:1013E00029700A1F026121772068806980072046E2
:1013F00002D0FFF7B1FE04E000F0C8F8204600F08C
:101400004AF9267720680169C943490717D4C1689A
:10141000C943490713D402212970CA1F02612177E9
:101420002068806910F4407F204602D0FFF794FEC8
:1014300004E000F0ABF8204600F02DF92677206894
:1014400001694FF00407C943090717D4C168C943AC
:10145000090713D4032129706FF008010161277770
:101460002068C0698007204602D0FFF775FE04E0BF
:1014700000F08CF8204600F00EF92677206801690C
:10148000C943C90618D4C168C943C90614D42F700A
:101490006FF010010161082020772068C06910F406
:1014A000407F204602D0FFF757FE04E000F06EF8C0
:1014B000204600F0F0F8267720680169C943C90783
:1014C00008D1C168C943C90704D1891E01612046FA
:1014D00000F0FEF820680169C943090609D4C16813
:1014E000C943090605D46FF0800101612046FFF76A
:1014F0000DFD20680169C943490609D4C168C94383
:10150000490605D46FF040010161204600F0FDF866
:1015100020680169C94389060BD4C168C94389069B
:1015200007D46FF0200101612046BDE8F041FFF7CC
:10153000EEBCBDE8F08100001800002000B585B0C9
:101540000021009101910291039100680C498842A9
:1015500013D10C48816941F00401816180696946B9
:1015600000F0040004904FF44070009002200190BD
:10157000032003900448FFF7C1F805B000BD000048
:10158000002C01400010024000080140704770B577
:10159000044690F83C000D4601280DD0012684F841
:1015A0003C60022084F83D0042B1042A18D0082A89
:1015B0002AD00C2A4DD139E0022070BD206800F0FD
:1015C0005FFB2068816941F00801816120688169C1
:1015D00021F004018161206881692A69114311E0C9
:1015E000206800F075FB2068816941F40061816129
:1015F0002068816921F480618161206881692A699C
:1016000041EA0221816124E0206800F08DFB20681E
:10161000C16941F00801C1612068C16921F004017C
:10162000C1612068C1692A69114311E0206800F096
:10163000A7FB2068C16941F40061C1612068C169EC
:1016400021F48061C1612068C1692A6941EA0221EF
:10165000C16184F83D60002084F83C0070BD10B585
:10166000040003D094F83D0010B107E0012010BD44
:10167000002084F83C00204600F00CF8022084F89A
:101680003D00211D206800F0A5FA012084F83D00EE
:10169000002010BD7047704710B504460068012255
:1016A00000F0CEFA09492068884203D1416C41F428
:1016B000004141642068816801F00701062903D0D8
:1016C000016841F001010160002010BD002C0140C3
:1016D00002480179491C0171704700000000002098
:1016E0000246002041B1042909D008290AD00C295A
:1016F00001D11068006C70471068406B704710682B
:10170000806B70471068C06B70477047FEE7000041
:1017100030B585B0002000900190029003901648EB
:10172000816941F020018161816901F0200104910A
:10173000816941F004018161816901F00401049132
:10174000816941F0080181618069012200F008008F
:101750000A4D5403049021462846FFF7C4F801219E
:101760000320CDE90210CDE9004169462846FEF785
:10177000C5FF05B030BD000000100240000C014064
:1017800030B595B000240F941094119412941394D2
:101790001C2168461494FEF7DCFC202107A8FEF704
:1017A000D8FC2C482A4901604721C0E9011440F2C5
:1017B000E731C0E9031444618461FFF7F4FB08B129
:1017C000FEF789FF4FF480550FA922480F95FFF7C8
:1017D00057FC08B1FEF77FFF1E48FFF740FF08B136
:1017E000FEF779FF139413A91A481494FFF7BAFB74
:1017F00008B1FEF770FF6020CDE900040294039465
:10180000049405940022694612480694FFF7BFFE2F
:1018100008B1FEF760FF042269460E48FFF7B7FEE5
:1018200008B1FEF758FF07944FF4005009940C904C
:101830000894CDE90A4507A906480E94FFF768FB0E
:1018400008B1FEF748FF0348FFF778FE15B030BD3A
:10185000002C01402C00002030B58BB000252D4C11
:1018600004950595069507950895099500950195A8
:1018700002954FF080400395206040F2CF20C4E9EC
:1018800001054FF6FF70C4E903052046A561FFF787
:101890008AFB08B1FEF71FFF4FF48050049004A9A3
:1018A0001C48FFF7EDFB08B1FEF715FF1948FFF7DD
:1018B00040FD08B1FEF70FFF089508A915480995E6
:1018C000FFF750FB08B1FEF706FF0120CDE90050FD
:1018D0000295082269460F480395FFF79DFC08B161
:1018E000FEF7F9FE0C2269460A48FFF795FC08B19D
:1018F000FEF7F1FE08210748FFF737FD0C210548E8
:10190000FFF733FD2068C16841F00101C1600BB0F1
:1019100030BD00006C000020FEE77047002000F0A2
:1019200001B8000070B506465FF0000404F1B00095
:10193000C0B200F0B3FA002000F0B0FA102000F0BE
:10194000ADFA0025304600F0BAFA6D1CEDB2802DDC
:10195000F8D3641CE4B2082CE8D370BD10B54FF482
:10196000FA70FEF7B9FEAE2000F098FA202000F0E1
:1019700095FA102000F092FAB02000F08FFAC820FB
:1019800000F08CFA002000F089FA102000F086FAAE
:10199000402000F083FA812000F080FAFF2000F060
:1019A0007DFAA12000F07AFAA62000F077FAA820AC
:1019B00000F074FA3F2000F071FAA42000F06EFAF3
:1019C000D32000F06BFA002000F068FAD52000F078
:1019D00065FAF02000F062FAD92000F05FFA2220C8
:1019E00000F05CFADA2000F059FA122000F056FA02
:1019F000DB2000F053FA202000F050FA8D2000F098
:101A00004DFA142000F04AFABDE81040AF2000F073
:101A100045BA10B58D2000F041FA142000F03EFACE
:101A2000BDE81040AF2000F039BA10B50446B0311F
:101A3000C8B200F033FA102040EA141000F02EFA79
:101A400004F00F00BDE8104040F0010000F026BA9D
:101A50002DE9F047002591468A460446012B22D005
:101A6000DFF8BC80022B24D155E02038C7B27E2C91
:101A700004D90AF10100002400F0FF0A5146204673
:101A8000FFF7D3FF07EB4700002608EB4007B85DE0
:101A900000F015FA761CF6B2062EF8D3A41D6D1CC4
:101AA000E4B2EDB201E0DFF87C8019F8050000280F
:101AB000DBD1BDE8F0872038C7B2782C04D90AF111
:101AC0000100002400F0FF0A51462046FFF7ADFF59
:101AD0005FF0000606EB071118F8010000F0EFF9BF
:101AE000761CF6B2082EF5D30AF10100C1B22046E9
:101AF000FFF79BFF5FF0000606EB071101EB080004
:101B0000007A00F0DCF9761CF6B2082EF4D3083423
:101B10006D1CE4B2EDB219F805000028CBD1C8E77E
:101B2000102D0008E82A000870477047FEF7E6BE4F
:101B300030B58FB028216846FEF70BFB14210AA8A8
:101B4000FEF707FB01210804CDE9001000240294F0
:101B500002250491CDE907504FF4E0100990684642
:101B6000FFF730F80F20CDE90A056802CDE90C40F7
:101B700002210AA80E94FEF759FF0FB030BD0000F5
:101B80000D48016841F00101016041680B4A1140B4
:101B9000416001680A4A11400160016821F4802116
:101BA0000160416821F4FE0141604FF41F01816032
:101BB0000449C00308607047001002400000FFF8AD
:101BC000FFFFF6FE08ED00E00148FFF7F9BB00005B
:101BD0006C000020F0B50268164B174C174D4FF003
:101BE0008047984205D0B84203D0A04201D0A84215
:101BF00003D122F070064A683243984205D0B842B9
:101C000003D0A04201D0A84203D122F44074CA6894
:101C100022434C6922F08002224302608A68C26239
:101C20000A688262984201D1096901630121416118
:101C3000F0BD0000002C01400004004000080040FE
:101C400010B501F01F030121046A99408C4304621E
:101C5000016A9A401143016210BD10B5846842EADE
:101C6000032224F47F440A432243826010BD826829
:101C700022F070020A4342F00701816070470000C1
:101C800030B5026A22F001020262026A4368846986
:101C900024F073050C682C4322F002058A682A435D
:101CA0000A4DA8420BD122F00805CA6823F44073FC
:101CB0002A434D6922F004021D438B692B43436084
:101CC000846149684163026230BD0000002C01401C
:101CD00030B5026A22F010020262026A4368846927
:101CE0000D6824F4E64444EA05248D6822F02002BD
:101CF00042EA05120B4DA8420ED1CD6822F08002B7
:101D000042EA05124D6923F4406343EA85038D6975
:101D100022F0400243EA850343608461496881639D
:101D2000026230BD002C014030B5026A22F480729C
:101D30000262036A4268C46923F4007324F07305E5
:101D40000C682C438D6843EA05230C4DA8420ED144
:101D5000CD6823F4006343EA05234D6922F4405221
:101D600042EA05128D6923F4806342EA051242605B
:101D7000C4614968C163036230BD0000002C0140AA
:101D800030B5026A22F480520262046A4268C36972
:101D90000D6823F4E64343EA05238D6824F40054D8
:101DA00044EA0534064DA84204D14D6922F480422C
:101DB00042EA85124260C36149680164046230BD31
:101DC000002C014010B5036A046A24F00104046287
:101DD000846924F0F00444EA021423F00A020A435E
:101DE0008461026210BD000070B5046A24F0010431
:101DF00004628469056A0F4EB04208D0B0F1804F8A
:101E000005D00D4EB04202D00C4EB04203D124F0AA
:101E10000304144301E044F001041A0724F0F00421
:101E200044EA126225F00A0301F00A0119438261B3
:101E3000016270BD002C0140000400400008004019
:101E400010B5036A23F0100303628369046A23F464
:101E5000704343EA023224F0A00343EA0111826195
:101E6000016210BD30B5046A24F010040462846974
:101E7000056A24F4407444EA022222F470444FF6C6
:101E8000FF7202EA03322243A02425F0A00304EAF1
:101E9000011119438261016230BDFEE710B50446AD
:101EA00000F010FD782000F0D3FC002000F0D0FC02
:101EB000204600F0CDFCBDE8104000F025BD10B577
:101EC000044600F0FFFC782000F0C2FC402000F047
:101ED000BFFC204600F0BCFCBDE8104000F014BD83
:101EE0000FB4084B10B504A902AA039800F0EEF84D
:101EF000044602A9002000F080FC204610BC5DF8DA
:101F000014FB0000FB2700080907090E002804DB6A
:101F100000F1E02080F80014704700F00F0000F19D
:101F2000E02080F8141D704702E008C8121F08C1A5
:101F3000002AFAD170477047002001E001C1121F4A
:101F4000002AFBD1704700002DE9FF5F82B000211D
:101F5000DDE90430020DDDF840B0034318D044F64B
:101F60001050A2F2FF3242431514119801281FD0DD
:101F7000A5EB0B00401C5FEA000A4FF000064E4F35
:101F8000DFF83891B046504615D5CAF1000413E089
:101F9000119801244AA3012801D16FEA0B0102988C
:101FA000119AC0E90031C0E9024206B0BDE8F09FD5
:101FB000CBF10000DFE704460021404A491842EB1C
:101FC0000450CDE9001012E0E00707D032463B464E
:101FD00040464946FEF7A7FA8046894632463B46C8
:101FE00010461946FEF79FFA06460F466410002C6D
:101FF000EAD1DDE90401DDE90023BAF1000F06DAD8
:10200000FEF791FA42464B46FEF78DFA05E0FEF7E1
:10201000ABF842464B46FEF7A7F804460E460022B0
:10202000284BFEF70BFB03D84FF0FF30014607E0CB
:102030000022254B20463146FEF7CEF9FEF7E5FAA1
:10204000102409E0002C0ADB0A220023FEF736F9EF
:10205000039B30321A55641E50EA0102F2D1641C0F
:10206000039AC4F111031444119A012A03D00122E6
:1020700008430DD10AE0084304D000204FF0110BB3
:10208000119072E7A3EB0B056D1E0DE05B4504DDBF
:102090004FF0000205F1010504E003DA4FF0000201
:1020A000A5F10105002AECD002981199C0E902318E
:1020B000C0E9004579E70000000014400000F03F4F
:1020C000300000000000F0430000E03F2DE9FF4F2A
:1020D00095B09B468946064600250FE2252877D114
:1020E00000242746F84A0121059400E0044316F82D
:1020F000013F203B01FA03F01042F7D130782A2843
:1021000011D06FF02F033078A0F13002092A16D8D1
:10211000059A44F0020402EB820203EB42021044EF
:10212000761C0590EFE759F8042B0592002A03DA94
:10213000504244F40054059044F00204761C307878
:102140002E2816D116F8010F44F004042A280DD0C9
:102150006FF02F023078A0F13003092B09D807EB7C
:10216000870302EB4303C718761CF3E759F8047B97
:10217000761C30786C280FD006DC4C2817D06828E5
:102180000DD06A2814D104E0742810D07A280FD119
:102190000DE044F400140AE044F4801401E044F437
:1021A00040147278824202D104F58014761C761CA9
:1021B000307866280BD013DC582877D009DC00284B
:1021C00075D04528F6D04628F4D047281AD19DE18D
:1021D00018E0632835D0642879D0652812D195E1BC
:1021E000702873D008DC6728F1D069286FD06E287A
:1021F0000DD06F2806D1B5E073282CD0752875D086
:10220000782874D05A46179990476D1C75E1C4F32D
:102210000250022809D003280DD0D9F80010042854
:102220000DD00D6009F1040967E1D9F80010EA1733
:10223000C1E90052F6E7D9F800100D80F2E70D7001
:10224000F0E719F8041B8DF8001000208DF801004C
:10225000EA46012003E059F804AB4FF0FF30610774
:102260004FF0000102D40DE008F101018846B942A7
:102270000FDA8045F8DB1AF808100029F4D108E0DD
:1022800008F1010188468142FADB1AF8081000299A
:10229000F6D105985B46A0EB080721463846179A09
:1022A00000F094FA284400EB080507E04DE029E12E
:1022B0000DE01AF8010B5A4617999047B8F101083A
:1022C000F7D25B4621463846179A13E142E00A22CC
:1022D0000092C4F302524FF0000A022A08D059F8C3
:1022E00004CB032A4FEAEC710AD00DE029E02AE082
:1022F00009F1070121F00702F2E802C1914609E065
:102300000FFA8CFC4FEAEC71042A03D14FFA8CFCD3
:102310004FEAEC71002907DA0A460021DCF1000CD3
:1023200061EB02012D2202E0220504D52B228DF85B
:102330000420012203E0E20701D02022F7E79046C3
:1023400059E00A2102E010220DE010214FF0000AAE
:1023500000910BE010224FF0000A44F0040408271B
:10236000009203E008224FF0000A0092C4F30252E8
:10237000022A05D059F804CB0021032A08D009E02D
:1023800009F1070121F00702F2E802C1914605E0D8
:102390001FFA8CFC042A01D10CF0FF0C4FF000084E
:1023A000220728D5702806D0009B83F0100353EA3B
:1023B0000A0305D00EE040228DF80420012208E037
:1023C0005CEA010206D030228DF804208DF8050069
:1023D00002229046009B83F0080353EA0A030AD1C5
:1023E0005CEA010201D1620705D530228DF8042094
:1023F0004FF001087F1E582804D034A003900EA887
:1024000002900DE036A0F9E753466046009AFDF7CA
:1024100055FF84460398825C0298401E0290027029
:102420005CEA0100F0D1029806A9081A00F1200A1E
:10243000600702D524F4803400E00127574502DD0F
:10244000A7EB0A0000E0002000EB0A0100900598CD
:102450004144401A0590E00306D45B462146179A92
:10246000059800F0B3F90544002706E001A85A4694
:10247000C05D179990476D1C7F1C4745F6DBE00354
:102480000CD55B462146179A059800F09FF9054444
:1024900004E030205A46179990476D1C0099481E59
:1024A00000900029F5DC08E0029802995A4600786D
:1024B000491C0291179990476D1CBAF10001AAF1CD
:1024C000010AF1DC65E100000928010030313233F6
:1024D0003435363738396162636465660000000060
:1024E000303132333435363738394142434445464A
:1024F0000000000000F058F90544761C30780028F0
:102500007FF4ECAD19B02846BDE8F08F620700D427
:10251000062709F1070222F0070CFCE80223E14636
:1025200003F000485FEA080C02D00FF2702C0DE0B7
:102530005FEA045C02D50FF2682C07E05FEAC47C16
:1025400002D00FF2602C01E0AFF2700C4FF0FF38B8
:1025500023F00043CDF850C065280CD006DC452898
:1025600009D046281DD047283DD13DE0662818D027
:1025700067287ED138E00021112F01DB112000E017
:10258000781CCDE9000106A90EA8FFF7DDFCDDE906
:102590000F010E9A03910021009207F1010A0491A4
:1025A0004DE04FF000400097CDE9011006A90EA8BC
:1025B000FFF7CAFCDDE90F0203920E9B119900227E
:1025C000DDF80CA00093049211B9791C00EB010A0C
:1025D000B7EB0A0004D4C0F1FF3007F1010A049000
:1025E000AAEB0700019044E0012F00DA0127002147
:1025F000112F01DD112000E03846CDE9000106A9C8
:102600000EA8FFF7A1FCDDE90F010E9A039100214E
:1026100004910092BA4621070CD40399514500DA7F
:102620008A46BAF1010F05DD009AAAF10101515C59
:10263000302908D0B84202DA10F1040F06DA01217D
:10264000CDE9011015E0AAF10101E9E7002805DC58
:10265000049901440491AAEB000102E0411C514598
:1026600000DD8A460499401A401C01904FF000405A
:102670000290200704D40198504501DBCDF8048076
:1026800000208DF84F0002980DF14F07B0F1004F78
:1026900025D02B200E9002984FF0020800280CDA6B
:1026A000404202902D200E9007E00A210298FDF78B
:1026B000EFFD3031029007F8011DB8F10001A8F1DB
:1026C0000108F2DC02980028EFD1791E0E980870FC
:1026D000307800F0200040F0450007F8020D12A805
:1026E000C01B00F107081498007800B1012000EB2E
:1026F0000A01019801EBE07105984144401A401E1F
:102700000590E00306D45B462146179A059800F031
:102710005DF805441498007818B15A461799904707
:102720006D1CE00324D55B462146179A059800F0FE
:102730004DF805441CE00498002807DBDDE903019F
:10274000884203DD0098405C179901E0179930201A
:102750005A469047049805F10105401C04900198E1
:10276000401E019004D12E205A46179990476D1CA7
:10277000BAF10001AAF1010ADDDC05E017F8010B4E
:102780005A46179990476D1CB8F10001A8F101084D
:10279000F4DC5B462146179A0598ABE62D00000055
:1027A0002B000000200000002DE9F0410446002528
:1027B0001E461746880404D405E039462020B04759
:1027C0006D1C641EF9D52846BDE8F0812DE9F04165
:1027D000044600251E469046C80301D5302700E078
:1027E0002027880404D505E041463846B0476D1CD3
:1027F000641EF9D52846BDE8F0810A68531C0B60B9
:10280000107070470D4800B5816985B041F008012E
:1028100081618069694600F0080004904FF44070BF
:102820000090012001900290032003900448FDF7DE
:1028300065FF00F069F805B000BD0000001002401F
:10284000000C01400020401CC0B20528FBD370479B
:102850002DE9F0411A4F002405464FF40078BE15CB
:10286000280601D5012200E0002241463846FEF745
:102870003AF8FFF7E7FF012231463846FEF733F812
:10288000FFF7E0FF002231463846FEF72CF86806D5
:10289000641C050EE4B2082CE2D3012241463846FE
:1028A000FEF721F8012231463846FEF71CF8FFF703
:1028B000C9FF31463846BDE8F0410022FEF713B8A3
:1028C000000C014070B501220E4D540221462846ED
:1028D000FEF709F80122160231462846FEF703F8F2
:1028E000FFF7B0FF002221462846FDF7FCFFFFF767
:1028F000A9FF002231462846FDF7F5FFBDE87040EC
:10290000FFF7A0BF000C014070B50B4D4FF40074F1
:10291000002221462846FDF7E6FF01221102284643
:10292000FDF7E1FFFFF78EFF21462846BDE8704026
:102930000122FDF7D8BF0000000C014096B000272F
:10294000CDE90477CDE906773E463D46B946B8461F
:1029500014210EA8FDF7FDFB142108A8FDF7F9FBD3
:10296000FDF7D4FFFFF7E4F8FFF74CFFFEF7F6FFA3
:10297000FEF7CEFEFEF704FFFEF76EFFFFF749F805
:10298000FEF7CCFFDFF82CA1DFF82CB14FF4805418
:1029900021465046FDF7A2FF012805D021465046AA
:1029A000FDF79CFF28B118E04FF000090127C84649
:1029B00013E0012F11D14FF41674A146C84600212F
:1029C0003E48FEF769FE04213C48FEF765FE3B48A1
:1029D00001684C63006884630027394C607818B143
:1029E0006078012809D018E0761CF6B2032E14D3C3
:1029F00003260020CDE904000FE03148083041688B
:102A00000068081AFDF71FFC00225B46FDF7ACFBCF
:102A1000CDE90401002060700646E07818B1E07846
:102A2000012808D017E06D1CEDB2032D13D3032548
:102A3000002001460DE00020E07021481030416880
:102A40000068081AFDF7FFFB00225B46FDF78CFBD0
:102A50000025CDE9060143464A461AA108A8FFF71A
:102A60003FFADDE9040100225C465B46FDF7F8FB16
:102A700010D2DDE9060100222346FDF7F1FB09D261
:102A8000DDE90601CDE90001DDE9042312A10EA86C
:102A9000FFF726FA0021022308AA0846FEF7D8FF0E
:102AA00002230EAA19460020FEF7D2FFC820FDF728
:102AB00013FE6BE7000C0140000059402C00002081
:102AC000000000204C3A252E33642D2D2D2D2D2570
:102AD0002E33643A520000004C3A25352E326620DF
:102AE00025352E32663A520000000000000000003A
:102AF000002F000000000700070000147F147F145F
:102B000000242A7F2A1200626408132300364955E4
:102B1000225000000503000000001C2241000000BC
:102B200041221C000014083E08140008083E080852
:102B3000000000A0600000080808080800006060AD
:102B40000000002010080402003E5149453E0000EC
:102B5000427F4000004261514946002141454B31CE
:102B6000001814127F10002745454539003C4A499A
:102B7000493000017109050300364949493600060C
:102B80004949291E00003636000000005636000074
:102B900000081422410000141414141400004122EF
:102BA000140800020151090600324959513E007CC7
:102BB0001211127C007F49494936003E41414122B1
:102BC000007F4141221C007F49494941007F09099A
:102BD0000901003E4149497A007F0808087F00004A
:102BE000417F4100002040413F01007F0814224105
:102BF000007F40404040007F020C027F007F0408BD
:102C0000107F003E4141413E007F09090906003E18
:102C10004151215E007F0919294600464949493141
:102C20000001017F0101003F4040403F001F204064
:102C3000201F003F4038403F006314081463000722
:102C40000870080700615149454300007F41410079
:102C500000552A552A55000041417F000004020119
:102C600002040040404040400000010204000020F7
:102C700054545478007F4844443800384444442035
:102C800000384444487F00385454541800087E09E2
:102C900001020018A4A4A47C007F080404780000AA
:102CA000447D4000004080847D00007F1028440067
:102CB0000000417F4000007C04180478007C080478
:102CC000047800384444443800FC242424180018B4
:102CD000242418FC007C08040408004854545420A0
:102CE00000043F444020003C4040207C001C204029
:102CF000201C003C4030403C004428102844001C6C
:102D0000A0A0A07C004464544C4414141414141463
:102D100000000000000000000000000000000000B3
:102D2000000000F800000000000000333000000048
:102D300000100C06100C060000000000000000004F
:102D400040C07840C0784000043F04043F040400C1
:102D5000007088FC08300000001820FF211E0000D1
:102D6000F008F000E018000000211C031E211E00E6
:102D700000F00888700000001E212324192721106C
:102D800010160E000000000000000000000000000F
:102D9000000000E0180402000000000718204000B6
:102DA00000020418E00000000040201807000000A6
:102DB000404080F0804040000202010F010202000A
:102DC000000000F0000000000101011F01010100EE
:102DD000000000000000000080B070000000000053
:102DE00000000000000000000001010101010101DC
:102DF0000000000000000000003030000000000073
:102E00000000000080601804006018060100000047
:102E100000E010080810E000000F102020100F0044
:102E2000001010F8000000000020203F20200000CB
:102E30000070080808887000003028242221300023
:102E400000300888884830000018202020110E002B
:102E50000000C02010F8000000070424243F2400D4
:102E600000F80888880808000019212020110E00A9
:102E700000E0108888180000000F112020110E00BB
:102E800000380808C83808000000003F00000000B3
:102E90000070880808887000001C222121221C0074
:102EA00000E010080810E0000000312222110F009D
:102EB000000000C0C0000000000000303000000032
:102EC00000000080000000000000806000000000A2
:102ED00000008040201008000001020408102000BB
:102EE0004040404040404000040404040404040006
:102EF000000810204080000000201008040201009B
:102F0000007048080808F00000000030360100009A
:102F1000C030C828E810E0000718272423140B004D
:102F20000000C038E0000000203C230202273820C7
:102F300008F8888888700000203F202020110E00AB
:102F4000C0300808080838000718202020100800A2
:102F500008F808080810E000203F202020100F008B
:102F600008F88888E8081000203F20202320180057
:102F700008F88888E8081000203F200003000000BF
:102F8000C03008080838000007182020221E020060
:102F900008F808000008F808203F210101213F201F
:102FA000000808F8080800000020203F202000004A
:102FB00000000808F8080800C08080807F0000003A
:102FC00008F888C028180800203F20012638200073
:102FD00008F8080000000000203F202020203000DA
:102FE00008F8F800F8F80800203F003F003F2000F4
:102FF00008F830C00008F808203F200007183F00FC
:10300000E01008080810E0000F10202020100F002A
:1030100008F808080808F000203F2101010100001D
:10302000E01008080810E0000F18242438504F0062
:1030300008F8888888887000203F2000030C302022
:1030400000708808080838000038202121221C0060
:10305000180808F8080818000000203F20000000A9
:1030600008F808000008F808001F202020201F0092
:103070000878880000C83808000007380E010000F2
:10308000F80800F80008F800033C0700073C0300BC
:10309000081868808068180820302C03032C302022
:1030A0000838C800C83808000000203F2000000091
:1030B00010080808C83808002038262120201800E9
:1030C000000000FE020202000000007F40404000BD
:1030D000000C30C000000000000000010638C000F5
:1030E00000020202FE000000004040407F0000009D
:1030F00000000402020204000000000000000000C2
:1031000000000000000000008080808080808080BF
:1031100000020204000000000000000000000000A7
:1031200000008080808000000019242222223F209D
:1031300008F8008080000000003F112020110E00E0
:103140000000008080800000000E1120202011006F
:10315000000000808088F800000E112020103F2021
:103160000000808080800000001F222222221300A5
:10317000008080F0888888180020203F20200000F0
:103180000000808080808000006B949494936000A5
:1031900008F8008080800000203F210000203F20B0
:1031A00000809898000000000020203F20200000B0
:1031B000000000809898000000C08080807F0000A0
:1031C00008F8000080808000203F24022D3020007D
:1031D000000808F8000000000020203F2020000028
:1031E0008080808080808000203F20003F20003F42
:1031F0008080008080800000203F210000203F2050
:103200000000808080800000001F202020201F0000
:10321000808000808000000080FFA12020110E002F
:103220000000008080808000000E112020A0FF8020
:10323000808080008080800020203F2120000100CD
:103240000000808080808000003324242424190022
:10325000008080E0808000000000001F202000002F
:103260008080000000808000001F202020103F2070
:10327000808080000080808000010E300806010000
:1032800080800080008080800F300C030C300F00A5
:1032900000808000808080000020312E0E312000D0
:1032A000808080000080808080818E701806010000
:1032B00000808080808080000021302C222130001E
:1032C00000000000807C020200000000003F40403F
:1032D00000000000FF00000000000000FF000000F0
:1032E0000002027C800000000040403F000000001F
:1032F00000060101020204040000000000000000BA
:103300000000000000000000010203040607080995
:1033100030330008000000202C000000281F0008A7
:103320005C3300082C00002084040000381F0008D3
:10333000000000000000000000000000000000008D
:10334000000000000000000000000000010000007C
:0C33500010000000000000000024F40049
:04000005080000ED02
:00000001FF
